:020000040000fa
:080000000002040000000000f2
:020000040000fa
:040008006e03000083
:020000040000fa
:04000c006e0300007f
:020000040000fa
:040010006e0300007b
:020000040000fa
:040014006e03000077
:020000040000fa
:040018006e03000073
:020000040000fa
:04001c006e0300006f
:020000040000fa
:040020006e0300006b
:020000040000fa
:040024006e03000067
:020000040000fa
:040028006e03000063
:020000040000fa
:04002c006e0300005f
:020000040000fa
:040030006e0300005b
:020000040000fa
:04003400e8020000de
:020000040000fa
:040038006e03000053
:020000040000fa
:04003c006e0300004f
:020000040000fa
:040040006e0300004b
:020000040000fa
:04004400160300009f
:020000040000fa
:040048006e03000043
:020000040000fa
:04004c006e0300003f
:020000040000fa
:040050006e0300003b
:020000040000fa
:040054006e03000037
:020000040000fa
:040058006e03000033
:020000040000fa
:04005c006e0300002f
:020000040000fa
:040060006e0300002b
:020000040000fa
:040064006e03000027
:020000040000fa
:040068006e03000023
:020000040000fa
:04006c006e0300001f
:020000040000fa
:040070006e0300001b
:020000040000fa
:040074006e03000017
:020000040000fa
:040078005803000029
:020000040000fa
:04007c006e0300000f
:020000040000fa
:040080006e0300000b
:020000040000fa
:040084006e03000007
:020000040000fa
:040088006e03000003
:020000040000fa
:04008c006e030000ff
:020000040000fa
:040090006e030000fb
:020000040000fa
:040094006e030000f7
:020000040000fa
:040098006e030000f3
:020000040000fa
:04009c006e030000ef
:020000040000fa
:0400a0006e030000eb
:020000040000fa
:0400a4006e030000e7
:020000040000fa
:0400a8006e030000e3
:020000040000fa
:0400ac006e030000df
:020000040000fa
:0400b0006e030000db
:020000040000fa
:0400b4006e030000d7
:020000040000fa
:0400b8006e030000d3
:020000040000fa
:0400bc006e030000cf
:020000040000fa
:0400c0006e030000cb
:020000040000fa
:0400c4006e030000c7
:020000040000fa
:0400c8006e030000c3
:020000040000fa
:0400cc006e030000bf
:020000040000fa
:0400d0006e030000bb
:020000040000fa
:0400d4006e030000b7
:020000040000fa
:0400d8006e030000b3
:020000040000fa
:0400dc006e030000af
:020000040000fa
:0400e0006e030000ab
:020000040000fa
:0400e4006e030000a7
:020000040000fa
:0400e8006e030000a3
:020000040000fa
:0400ec006e0300009f
:020000040000fa
:0400f0006e0300009b
:020000040000fa
:0400f4006e03000097
:020000040000fa
:0400f8006e03000093
:020000040000fa
:0400fc006e0300008f
:020000040000fa
:040100006e0300008a
:020000040000fa
:040104006e03000086
:020000040000fa
:040108006e03000082
:020000040000fa
:04010c006e0300007e
:020000040000fa
:040110006e0300007a
:020000040000fa
:040114006e03000076
:020000040000fa
:040118006e03000072
:020000040000fa
:04011c006e0300006e
:020000040000fa
:040120006e0300006a
:020000040000fa
:040124006e03000066
:020000040000fa
:040128006e03000062
:020000040000fa
:04012c006e0300005e
:020000040000fa
:040130006e0300005a
:020000040000fa
:040134006e03000056
:020000040000fa
:040138006e03000052
:020000040000fa
:04013c006e0300004e
:020000040000fa
:040140006e0300004a
:020000040000fa
:040144006e03000046
:020000040000fa
:040208006e03000081
:020000040000fa
:04020c006e0300007d
:020000040000fa
:040210006e03000079
:020000040000fa
:040214006e03000075
:020000040000fa
:040218006e03000071
:020000040000fa
:04021c006e0300006d
:020000040000fa
:040220006e03000069
:020000040000fa
:040224006e03000065
:020000040000fa
:040228006e03000061
:020000040000fa
:04022c006e0300005d
:020000040000fa
:040230006e03000059
:020000040000fa
:04023400e8020000dc
:020000040000fa
:040238006e03000051
:020000040000fa
:04023c006e0300004d
:020000040000fa
:040240006e03000049
:020000040000fa
:04024400160300009d
:020000040000fa
:040248006e03000041
:020000040000fa
:04024c006e0300003d
:020000040000fa
:040250006e03000039
:020000040000fa
:040254006e03000035
:020000040000fa
:040258006e03000031
:020000040000fa
:04025c006e0300002d
:020000040000fa
:040260006e03000029
:020000040000fa
:040264006e03000025
:020000040000fa
:040268006e03000021
:020000040000fa
:04026c006e0300001d
:020000040000fa
:040270006e03000019
:020000040000fa
:040274006e03000015
:020000040000fa
:040278005803000027
:020000040000fa
:04027c006e0300000d
:020000040000fa
:040280006e03000009
:020000040000fa
:040284006e03000005
:020000040000fa
:040288006e03000001
:020000040000fa
:04028c006e030000fd
:020000040000fa
:040290006e030000f9
:020000040000fa
:040294006e030000f5
:020000040000fa
:040298006e030000f1
:020000040000fa
:04029c006e030000ed
:020000040000fa
:0402a0006e030000e9
:020000040000fa
:0402a4006e030000e5
:020000040000fa
:0402a8006e030000e1
:020000040000fa
:0402ac006e030000dd
:020000040000fa
:0402b0006e030000d9
:020000040000fa
:0402b4006e030000d5
:020000040000fa
:0402b8006e030000d1
:020000040000fa
:0402bc006e030000cd
:020000040000fa
:0402c0006e030000c9
:020000040000fa
:0402c4006e030000c5
:020000040000fa
:0402c8006e030000c1
:020000040000fa
:0402cc006e030000bd
:020000040000fa
:0402d0006e030000b9
:020000040000fa
:0402d4006e030000b5
:020000040000fa
:0402d8006e030000b1
:020000040000fa
:0402dc006e030000ad
:020000040000fa
:0402e0006e030000a9
:020000040000fa
:0402e4006e030000a5
:020000040000fa
:0402e8006e030000a1
:020000040000fa
:0402ec006e0300009d
:020000040000fa
:0402f0006e03000099
:020000040000fa
:0402f4006e03000095
:020000040000fa
:0402f8006e03000091
:020000040000fa
:0402fc006e0300008d
:020000040000fa
:040300006e03000088
:020000040000fa
:040304006e03000084
:020000040000fa
:040308006e03000080
:020000040000fa
:04030c006e0300007c
:020000040000fa
:040310006e03000078
:020000040000fa
:040314006e03000074
:020000040000fa
:040318006e03000070
:020000040000fa
:04031c006e0300006c
:020000040000fa
:040320006e03000068
:020000040000fa
:040324006e03000064
:020000040000fa
:040328006e03000060
:020000040000fa
:04032c006e0300005c
:020000040000fa
:040330006e03000058
:020000040000fa
:040334006e03000054
:020000040000fa
:040338006e03000050
:020000040000fa
:04033c006e0300004c
:020000040000fa
:040340006e03000048
:020000040000fa
:040344006e03000044
:020000040000fa
:100400006f9320000eff27000e01880000000000ff
:10041000000020000000e000020032000001200087
:10042000200288000e000700005d2200010020006d
:10043000810f700001003200220007000000200040
:100440000000e00002003200000002000000000096
:100450004a250200000000000040da000000fe0013
:100460004440a900800220000000e00003003200a8
:1004700000002000a00188004440a8000000060001
:10048000f03fb1000180b10006003500ee03090025
:1004900000000000403fb1000180b100fbff3d00c3
:1004a0001000b000203fb0000200350000800900bd
:1004b00000000000000006008a1f78008b1f7800f3
:1004c0000000060091018800800478000000eb0025
:1004d0001a003700e284440032a0b4009905ba0043
:1004e000e284440032a0b4009906ba00e2844400d9
:1004f00032a0b4000006eb00476fde00fd07b2003b
:10050000636ce10003003a00ebff07000000eb0022
:100510000a003700606ce10004003a00005deb0067
:100520008b05e900fdff3e00040037006168e10033
:10053000010032000086eb000b00070019c7ba006b
:100540001905ba000e04e00003003a000a00e000ba
:10055000e0ff3a0000000600fe07b2009e0188009e
:100560008a047800f5ff3700395dba008b05e90091
:100570000c003200295dba008b05e900080032004a
:100580000c00e00003003a00e284440032a0b40012
:10059000f5ff370019ddba008b05e900faff3a00d4
:1005a0008904e800e184440032a0b40000000600a1
:1005b000e803040000000000bc0404000000000088
:1005c000ac0d04000000000000000400000000006a
:1005d000809fbe003400f80000002000a0018800c9
:1005e0000000fa00101680004500de006140600047
:1005f0000004a200614060000080fb006100600018
:100600004500dd00111680000150a10001007000be
:1006100010168800000000008460a9000080fa0025
:100620003400f9004f00be0000400600809fbe006d
:100630003400f80000002000a00188000000fa004b
:10064000304080000000e8003040880050408000ca
:100650000000e8005040880050408000e40f500047
:100660000e003400101680004400de00614060007f
:100670000004a200614060000080fb006100600097
:100680004400dd00111680000140a100010070004f
:1006900010168800000000000a28ef0084e0a9007e
:1006a0000080fa003400f9004f00be000040060050
:1006b0003400f800881f780008002000a801880096
:1006c0004f0478000000fa000628ef008680a90099
:1006d0000080fa003400f900004006000040da0013
:1006e0000000fe00889fbe008a1f7800000478008a
:1006f0000800e0000d003a00288820007005440042
:100700008004eb00580078000000e0000400320094
:10071000f4ff07000000e00001003d008084eb00d2
:100720008a0f5400f7ff3a0025003700000022002e
:10073000180060008004eb0021003200a804900043
:100740000f00370009015100384090000000fb0005
:1007500089007800460907000000e00007003c001f
:10076000280090004004980060049800500c980005
:100770001890a0008084eb001100370080844400b2
:1007800048019000828f5400eeff3900280090004d
:10079000400498009800780002c0200002816000a8
:1007a00001003a003800900001e8a3000200320086
:1007b0006004980001003700500c98008004eb00a2
:1007c000090078004f0578004f04be0000000600c5
:1007d000889fbe0000047800010078008204780041
:1007e0008801780009017800110020000e00070040
:1007f000890f5000010032000004eb00080078006f
:100800004f04be00000006000000fa00e881570017
:100810004fb9970041832000803e2000200107004f
:100820000080fa0000000600889fbe008a9fbe007c
:100830008c9fbe008e1f78000006780001047800af
:1008400002007800830478000881b900020778006c
:100850000200e000420032000800e00041003200e7
:1008600082057800c900900069009000808f5000d8
:1008700004003900090078000e0107000000e000c4
:100880002900350000402000190060000a003200f5
:100890000b017800a10020000c0078004c0107003b
:1008a000800678000d00e0000600320061051600a9
:1008b0000a854600040037000b0578008006eb002f
:1008c000010037000b05780049009000e900900016
:1008d000808050008a8f50000200310001057800ae
:1008e0008006eb000a0178008c00780042010700c6
:1008f0008a855500490090000a004000c004980015
:100900000d00e000040032000900780075ff0700c8
:100910000000e00004003a000b00e000020032009a
:100920000a064600cfff3700008020001900600053
:1009300002003200090078006aff070000c02000b2
:10094000190060000200320049009000e0049800a5
:100950008b055700110009008885d8000100370079
:100960000000eb004f0778004f06be004f05be00a9
:100970004f04be0000000600889fbe0000047800ff
:100980000203be0081047800080278008901780023
:10099000120020000600be001e010700890f500053
:1009a000010032000004eb00080078004f04be0094
:1009b000000006006800fa00889fbe008a9fbe0003
:1009c000800478000104780082057800030578002f
:1009d0008400780000f92f000f0040007901070023
:1009e000d98f9f00fb8f9f000000eb00a09f9f000e
:1009f000e88f9f009a84fb000904fb008904ea0049
:100a0000cf4cde0050022000800f54000d00320059
:100a1000e18f54000b003a00090178008a00780049
:100a20007f889700df89970003000100f08f9f0007
:100a30000000e000950032002f9897000000e800c9
:100a4000a09f9f000905450050022000800f540020
:100a5000040032000800e000e6ff3a002f989700fb
:100a60008b0037000000eb00809f9f00f0979f00f5
:100a7000e0979f00d0979f00c0979f00b0979f007e
:100a800007003700219220000100500000004000c4
:100a90006191200061007800cf98970001007000fc
:100aa000c09f9f000a04780008057800ba447800c7
:100ab0008900fb0020922000440107000000e000b4
:100ac000f0ff3a00a1c2b30081cf54000e003a00fb
:100ad0008f8897000180e900808f9f0010007800c8
:100ae000b09f9f000000e00005003d000000ea000c
:100af000b09f9f004f9897000020a000c09f9f00cc
:100b00000804e80010003700b09f9f0088007800bc
:100b10000000eb0005003700f3ff2700830f5000b3
:100b2000020032006a02b9000400410001047800aa
:100b3000880078003101fb000203b100e90f510089
:100b4000f5ff3600b09f9f00e0c2b300984f100041
:100b5000020032000080eb0019003700a0c2b30091
:100b6000d84f100007003a008f8897000180e900f5
:100b7000808f9f0010007800909f9f000804e8007d
:100b8000100037000000eb00909f9f008800780065
:100b900005003700f3ff2700830f500002003200ea
:100ba0006a02b9000400410001047800880078005e
:100bb0003101fb000203b100e90f5100f5ff3600df
:100bc000909f9f00984478008900fb00e0902000ef
:100bd000fe0007000000e000020032000804e80008
:100be000010037008044eb00a97f9f0080c6b3005e
:100bf00080cf540006003a0098cf140010003a004d
:100c000066405000a07f9f000804e8000c003700f9
:100c1000c0c6b30080cf540009003a0098cf14003a
:100c200007003a0067404000d84f100002003a0029
:100c30006e4050000100370010c7b300a07f9f0036
:100c40001801fb00c3fb2f008f81410001f92f0029
:100c50008f80400020f92f000f004000c1010700e5
:100c60000000e00009003a00c1fb2f008f80400027
:100c700020f92f000f004000e00007000000e00016
:100c8000020035000805e8005aff37000080eb003d
:100c90004f05be004f04be000080fa0000000600b1
:100ca000030278008201780001017800c14b200026
:100cb00040ff3700889fbe008a1f7800000478003c
:100cc000c8009000680190000000eb00828f500087
:100cd0003c00390018007800220029000201600061
:100ce000e20f510007003200012020000000e00068
:100cf0000100350001202400008c70000080eb0012
:100d0000300037000200260002006000820f500011
:100d100009003a0038009000808f5000060039002a
:100d2000080078006ffe0700800078000080eb006c
:100d30000100e00023003a001805780000c0200000
:100d40000000650018003a00a8049000600220002e
:100d500008004000808f540013003a00002020005b
:100d600006030700200498000000e00005003a0098
:100d700029049800490498008904e800390498007f
:100d8000080037000a60a0000a0c780040049800b0
:100d9000012020008080400031049800400c980021
:100da000500c980021030700280090005004980080
:100db000380090006004980000002600180c7000b5
:100dc0000000eb004f0578004f04be000000060055
:100dd00003003700b0cf1000050032000201e90027
:100de000800178000200e000faff3a0000000500f0
:100df0000300780000000600800178000200370040
:100e0000b15978000201e9000200e000fcff3a005d
:100e100000000600e6874700889fbe008a9fbe004c
:100e20008c9fbe008e1f780082bf9f000404780054
:100e3000029ab900f4b79f000400e00059003200a4
:100e40000fb997000200e000570032000006be0014
:100e500004077800c800900068009000808f500060
:100e6000040039000800780092ff07000000e0004d
:100e70003b00350000402000180060000a003200ee
:100e80008e017800a20020000c00be00ba07070007
:100e90000005be0000807500070032008c0455007c
:100ea0008904e800050037008e0478000a0020005d
:100eb0000b002000010037008e04780048019000ec
:100ec0006800900002005000890f500003003100bc
:100ed000800478000a0020000b0020006111b80097
:100ee000828fd2008381d200090278000c00be00fc
:100ef000bc070700090757004800900009004000a0
:100f0000400498000a85750004003200080078004b
:100f1000f4fd07000000e00011003a000e00e000c0
:100f20000f0032006148b800808fd2008180d2006b
:100f30000000780000f0a1008c01d0000001d0007a
:100f4000028641004220a80081864e004200a9008e
:100f50004220ae004200a8000c86d300bdff37003f
:100f600000802000180060000200320008007800b5
:100f7000dcfd070000c02000180060000200320005
:100f8000c8019000630498007fb097000e075000de
:100f90000fb99700110009000287d800800178007e
:100fa000010037008001eb00030078004f07780054
:100fb0004f06be004f05be004f04be006f00b100db
:100fc000000006000108780000000600020037005b
:100fd0000304e000060032000001780002007800ff
:100fe000b041780081cf5100f9ff3a00010037008d
:100ff0000001eb0002007800000006000400fa0087
:10100000889fbe008a9fbe008c1f78000004780075
:1010100001067800a81490002808900080845400ed
:101020003808900080845400480890008084540060
:101030005808900080845400680890008084540010
:1010400078089000808454000002220090bf9f0026
:1010500000032300a0bf9f00381090000028a300c9
:1010600015003a000900e00013003400090578007b
:101070008a057800e20f5500010036002b002000a1
:10108000c80190000b017800ee80570068009000c6
:1010900003000100600498000000e000aa00320094
:1010a000181090000b004000101498000b0555001c
:1010b0004240a900eeff3c00280990000200e00039
:1010c0000c003400c80190008c007800680090008b
:1010d00003000100600498008080eb000000e00045
:1010e0009a0032009810900028089000008040007c
:1010f00010149800380d90000a00e0001100340030
:101100008a057800e20f5500010036002b00200010
:10111000c80190000b017800ec8057006800900037
:1011200003000100600498000000e0008600320027
:10113000181090000b004000101498000b0555008b
:10114000edff370008699000c808900050c6b30052
:10115000804f510008003a000100e0001500340003
:1011600058029000080990009809900068009000cb
:1011700004000100070037000100e0000d0034000a
:10118000c801900001017800f8009000680090000c
:1011900003000100600498008080eb000000e00084
:1011a0006a003200981090004808900000804000cb
:1011b00010149800580d90000a00e000110034004f
:1011c0008a057800e20f5500010036002b00200050
:1011d000c80190000b017800ec8057006800900077
:1011e00003000100600498000000e0005600320097
:1011f000181090000b004000101498000b055500cb
:10120000edff3700086990006808900051c6b300f0
:10121000814f51000d003a000000e0001c00340036
:1012200078019000c8089000010141006111b800e8
:10123000828fd2008381d200580290008000780013
:101240006800900004000100090037000000e00081
:101250000f00340078019000c80890008100410020
:10126000c8019000000178006800900003000100b0
:10127000600498008080eb000000e0003300320042
:1012800098109000680890000080400010149800aa
:10129000780d90000a00e000110034008a05780003
:1012a000e20f5500010036002b002000c80190001d
:1012b0000b017800ec8057006800900003000100eb
:1012c000600498000000e0001f0032001810900039
:1012d0000b004000101498000b055500edff37007f
:1012e000381090008000eb000028a30017003200a7
:1012f0000900e0001500340009057800e28f540071
:10130000010036002a002000c80190000a01780080
:10131000ee80570068009000030001006004980010
:101320000000e00008003200181090000a004000a1
:10133000101498008a8454004240a900eeff3c003b
:101340008000eb00010037008080eb000100780096
:101350004f0678004f05be004f04be000080fa0023
:1013600000000600889fbe008a1f780000047800f5
:10137000824478000305780070c6b30080cf540023
:101380001a003c0000c0e90080cf5400cd003d00b1
:101390006d40500080cf5400770032000b003c00bd
:1013a0007140500080cf540035013c0000c0e9007e
:1013b00080cf5400c3003d0050c2b30080cf540022
:1013c0002c0132007c4040000500370030c6b300dd
:1013d00080cf54001a0032001e003c0000c0e9001b
:1013e00080cf540026013a00b6003700f0c6b300a3
:1013f00080cf54006000320007003c00664050007f
:1014000080cf5400130032006540400080cf54006c
:101410001b013a00d400370050c7b30080cf5400fe
:10142000550032006340400080cf5400520032002b
:1014300002c7b30082cf540011013a00ff00370009
:101440001181e90082087800280890001275780060
:101450001101370008689000c2c6b300824f5000e7
:1014600007003a00110178006400510080087800fc
:101470001000be004f89de008201780014003700a2
:1014800012c7b300824f500003003a0011027800e7
:101490006800520005003700a2c6b300824f50001a
:1014a00006003a00910278006880520080087800b7
:1014b0005001be004000be00050037001180e90069
:1014c0008008780010007800cf80de006109b90044
:1014d000009cbe000294be00086a900085c6b3005e
:1014e000854f52000d00320025c6b300854f5200d3
:1014f00004003a000000fb00cf80de006109b90063
:101500000800370045c7b300854f52000300320082
:10151000e6c24200854f520004003a00cf80de0050
:101520006109b900009cbe000294be003802be00f2
:101530002803be0028089000d1c2b300e00f52007b
:10154000e08f5a00e00f5b00e08f5b000800350081
:10155000b81090000118a30002003200b1c2b3001d
:10156000030037000108a3005100320001c2b3009c
:10157000017578004c00370008689000c2c6b300bf
:10158000824f500008003a001103780064005300b5
:10159000800878001002be006033b8000400be006e
:1015a0000601be001400370012c7b300824f50007e
:1015b00003003a009102780068805200050037006d
:1015c000a2c6b300824f500006003a001103780013
:1015d00068005300800878005001be004000be0043
:1015e000050037001180e9008008780010007800bd
:1015f0008000eb006011b800009cbe000294be00a9
:10160000086a900085c6b300854f52000d00320075
:1016100025c6b300854f520004003a000080fb004d
:101620008000eb006011b8000800370045c7b30028
:10163000854f520003003200e6c24200854f52003f
:1016400004003a008000eb006011b800009cbe006e
:101650000294be00381090000038a300140032003d
:101660003800be002801be00e00f5000e08f580097
:10167000e00f5900e08f59000d00320080c7b30021
:1016800080cf54000300320080c5b30080cf5400e7
:1016900007003a002808900001c3b30001757800e4
:1016a0000000e800097578000000e800200c9800b0
:1016b00028089000000545007a04980089407800c9
:1016c0006900370008699000c0c4b300804f510022
:1016d00006003a0091037800688053008008780083
:1016e0005001be004000be00050037001101780027
:1016f00064005100800878001000be00d306070087
:10170000009cbe000294be00b80090002808900023
:101710000100e00002003d00d1c2b3000800370024
:10172000b81090000118a30002003200b1c2b3004b
:10173000030037000108a3000400320001c2b30017
:10174000017578000000e800200c9800280890003f
:10175000000545007a0498008900fb000800780025
:10176000370207004e00370008699000c3c6b30077
:101770001180e900834f5100240032000a003c0030
:10178000e4c15100834f51002700320083c1e800bb
:10179000834f51001500320020c6b300804f510026
:1017a00020003a000a00370043c7b300834f5100be
:1017b0001d003200e6c14100834f51001a00320083
:1017c00010c7b300804f510016003a0006003700e2
:1017d0001180e900800878001000780028649000eb
:1017e000084878002e0037001180e9008008780052
:1017f0001000780018129000cfa2de00612bb90013
:101800000498be000690be002500370080087800ce
:101810001000780018119000cf91de000288be0001
:101820001f0037001180e900800878001000780060
:101830001814900008087800190037001181e90099
:101840008208780012027800cfa2de00612bb90076
:10185000049cbe000694be00a80890000105450047
:101860007a0498008040780008007800c5000700de
:101870000b00370028089000097578000600370033
:1018800028089000000545000904e00001003a0026
:1018900059c2b300094d78000000e800200c980000
:1018a0000000eb004f0578004f04be00000006006a
:1018b000889fbe0000047800414980000100e000dc
:1018c00002003200010078000d003700514980000d
:1018d000a092200004003700910f5400250036002c
:1018e0000180e800910090000100e000faff3a005a
:1018f00010003700920f54001e0036000280e800ee
:10190000100178000200e000faff3a0011017800af
:1019100051498000a092200004003700910f54002c
:10192000140036000180e80091009000828f500082
:10193000faff3a0069498000888f540001003100a5
:101940008804780009007800e50207000000e00044
:1019500004003a00888f5400050032008904d10049
:10196000f5ff370009187800e7020700d2ff3700bb
:101970000000eb004f04be0000000600881f780046
:10198000630440000800a1008000eb00800f5400b9
:1019900021003600e30f540001003e004800200003
:1019a00008007800c2ff07008000eb000000e000a4
:1019b0001900320090007800910178006481510094
:1019c000880f5100030031001101900002087800d7
:1019d000070037000881400002087800910190005c
:1019e000130198001001780011091400880878008c
:1019f000100178000000eb000200e000040032005b
:101a0000920190000300e000010032000280e80033
:101a1000404988008180e800010078004f04780088
:101a200000000600c0da2000e9023700881f7800b5
:101a3000e89220001804e00003003a00f9ff0700d4
:101a400020c0b300004c78004f047800000006006e
:101a5000889fbe00000478000800780021fb070082
:101a600080047800000420001800600002003200aa
:101a700028009000a40207000000eb00200498005a
:101a8000384090000004e000050035000000fb0035
:101a9000f30407000000e000010032008084eb0046
:101aa000181090000000e00008003200f704070062
:101ab0000000e000010032008084eb00181090006c
:101ac000910207000000eb001014980000082000ad
:101ad000180060000f003200218820000000eb0099
:101ae000d10f140005003a0000004000418820009a
:101af000008040000008eb00030037000000e80011
:101b0000e80f5000f6ff3a00080078007e02070058
:101b10000e003700000c780000c0eb003044980045
:101b20006002200008004000200498004004980053
:101b300050049800400c980060049800500c9800e5
:101b40007004980076004400000c980009007800aa
:101b50004f04be0000000600889fbe004889200098
:101b6000f0045400480078000000e000010032005a
:101b7000b7ff0700890f5400faff3a004f04be0078
:101b800000000600fc874700889fbe008a9fbe00b9
:101b90008c9fbe008e1f78000006780080c5b300c1
:101ba00080cf50000a0032007740400080cf5000c4
:101bb0000a0032006940400080cf50000b00320024
:101bc000d08f200080bf9f00ae0020000a003700a9
:101bd000c28e200082bf9f0006003700d38f2000f6
:101be00083bf9f008e00200003003700d48f2000a9
:101bf00084bf9f000e0120003c02be002c03be00eb
:101c00000605be000404be0040c6b30080cf5000ed
:101c1000030032006540400080cf50000b003a00c6
:101c2000e00f5200e08f5a00e00f5b00e08f5b0096
:101c300006003d006000b8006011b80004045000c8
:101c4000858458000605590087855900e80f57001c
:101c50000400320040002000f00f570038003a0026
:101c60000100370030002000e00f5400e08f5c00de
:101c7000e00f5d00e08f5d0004003a008c109000e2
:101c80008d0120000100e000060032008e00e90016
:101c9000888060008fba9700e5c07800f1ef9f0060
:101ca0007d012000800078008100e90005003300fc
:101cb0008b05d1000a85d3008984d3000884d30022
:101cc000f9ff3700089ebe000a96be0012003700da
:101cd0008d06e9008e00e900848060000fb997004e
:101ce000e2c1780082fd2f000f01410003f17e0068
:101cf000800078008100e900050033008783d1006f
:101d00000683d3008582d3000482d300f9ff370015
:101d1000049ebe000696be003c02be002c03be0020
:101d2000e00f5200e08f5a00e00f5b00e08f5b0095
:101d30008b0034000d00e000e5ff3c008800370018
:101d40000c68900081c6b300814f50000b00320038
:101d500006003c000004e00008003200e6c050002d
:101d6000814f50004e003a0004003700c1c6b30056
:101d7000814f50004a003a00210037000800e0007f
:101d800004003a000c1090008d0120000000e000db
:101d900006003200110009000e84d8000fb9970028
:101da000e2c07800f1ef9f007d01200011000900e2
:101db0000e84d8000a003700110009000e04d80074
:101dc0008d06e9000e81b900020454008fb8970017
:101dd00061417c0081fd2f008f80400082f07e00f9
:101de000000478000800e000020032000d00e0006e
:101df000f1ff3c00cfc4de00614db9002500370083
:101e0000e00f5400e08f5c0004003a000c109000da
:101e10008d0120000000e000070032006171b90070
:101e20000800be00280507008fb99700e34178003d
:101e3000f3ef9f007d0120006171b9000800be0032
:101e4000240507000b0037006171b9000800be00cf
:101e5000300507008d06e90000f1b90002045400c6
:101e60000fba9700e4427c0084fd2f000f0242006d
:101e700005f27e000004be00e00f5000e08f580025
:101e8000020032000d00e000efff3c004fcdde000d
:101e90008a057800089ebe000a96be003000370012
:101ea000e00f5400e08f5c00e00f5d00e08f5d000c
:101eb00004003a000c1090008d0120000000e000aa
:101ec000090032006172b900612bb9000800be0040
:101ed0000a01be008d0507000fba97006442780022
:101ee000f4ef9f007d0120006172b900612bb90001
:101ef0000800be000a01be007d0507000d00370086
:101f00006172b900612bb9000800be000a01be0071
:101f1000820507008d06e90000f2b90004045400b0
:101f20008fba970065427c0085fd2f008f824200aa
:101f300084f27e00009ebe000296be003c04be00fd
:101f40002c05be00e00f5400e08f5c00e00f5d0048
:101f5000e08f5d00020034000d00e000e8ff3c006f
:101f6000e80f570010003a003c1090000038a30022
:101f70000d003200f78f560006003e0085fd2f0051
:101f80008f824200e5c07e0000c3b30080cf5000c6
:101f9000050032008d06e90002c3b30081fd2f0069
:101fa0008f80400082f07e0078811600420e9800fb
:101fb0007c00900083fd2f008f8141008d804100c7
:101fc0008dfb07004c0890008c109000810f500092
:101fd00006003d0000805000300e98003c1090003c
:101fe0000040a100301698000f0037000100e0000b
:101ff0000d003d00bc109000f4806000f08f500098
:1020000009003a002c119000ac08900081005100aa
:102010003c09900082805000008050004240a9009e
:1020200001003400300e98004f0778004f06be00c4
:102030004f05be004f04be00cf01b10000000600f6
:102040002f04b000889fbe008a9fbe008c9fbe00f8
:102050008e1f78000007780081f79f003e04be00c5
:102060002e05be000e1090000000e00002003d00b2
:1020700060002000001798008e00780020fb2f00e1
:102080000f0040005e010700e20f50000a003a0016
:1020900030002000400f9800b1c9b3000ff0970046
:1020a0008140400080892000e1cf50000d003e00bb
:1020b000408920000b0037000000e0000f003400d2
:1020c00030002000400f9800b1c9b3000ff1970015
:1020d00081404100008a2000e1cf500001003e0015
:1020e000c0892000fe009000b0487800b0687800f9
:1020f0001040780090409800f30037000000e000a6
:1021000005003a0022fb2f000f0141000019780062
:102110008001eb00e70037006022b8006033b800b0
:102120000800be000a01be007d0507000000e000b7
:1021300001003d000bf0a200705927009f98970006
:102140000088b900026a280013002000710407000b
:10215000640650009c9f9f0013003b00630616001e
:10216000c0ff2f00000666008c01ea00939f9f00cd
:102170004d8a20000800be000a01be00070037009b
:102180000c08a300030032003d02be002d03be0078
:10219000f30607000c86d100e88646000c00e0003c
:1021a000f7ff3c00180037000c00e0001800320078
:1021b000c0ff2f00000666009c9f9f004d8a2000f4
:1021c0006000b8000200200003ff23000700370072
:1021d0000c08a300030032003d02be002d03be0028
:1021e000df0607000c86d100e88646000c00e00000
:1021f000f7ff3c000002be000203be000800be0064
:102200000a01be004b0507000004be000205be0027
:102210008e10900060c6b3000ff29700804f5200fe
:10222000040032006000200062c4b300824f5200fc
:1022300002003a009f9a97006a80420081004000a5
:10224000f1b79f0001037800f30f53000200340040
:1022500037012000f7b79f0000c3b300c0779f008d
:1022600056fb2f000f0343000e007800a0b79f001d
:10227000060778003d0037000800be000a01be00d6
:10228000860507000006be007fb197006801510077
:10229000f2b79f004240a9000c003400ab050700d4
:1022a0000002be000203be000800be000a01be001c
:1022b000a90507006022b80046782d007719240090
:1022c000a70607000004be000205be00e8004700a4
:1022d0008e0020000802be000a03be00b4b79f00b3
:1022e000c5b79f00d6b79f00e7b79f000c01be009f
:1022f000010478000c003700a40020000500200035
:10230000c0fd2f000f004000e70007006fa89700f6
:10231000ffa897000fb197009fb1970005c3b300c6
:10232000056441000001be00e00f5100e08f59003c
:10233000030034000e07e900e10f4700eeff3a000a
:10234000880078003fb49700cfb497005fb597003e
:10235000efb597000200370000c3b300806078003b
:102360000e07e900fcff3b00688740007fb3970041
:102370000600e000070034006022b8006033b800b7
:102380000800be000a01be00750507000000e0005d
:10239000b9ff3c000e0378002fb7970051fb2f00c8
:1023a0008f804000010353009f9b9700678043008c
:1023b000909f9f00020037000603e9000000e9003b
:1023c000010178008200780003c3b300b1cf11008f
:1023d000f9ff3200909f9f008e11900061c6b300fc
:1023e0000ff29700814f52000300320061c4b30026
:1023f000814f520002003a000000e8000a00370056
:102400001000200051c6b3008ff2970081cf520018
:10241000050032000540780050c4b2000080fb0087
:102420000000e9004f00de0083014000868f51006c
:1024300001003400860178000300e0001d00350033
:1024400000c3b300868f510006003d0062c27900d0
:102450006940400041c3b300814f520001003c007d
:10246000694050008300e90081004100010037000d
:10247000840178000302e90001037800a14278009a
:1024800080cf5200faff320091c3b300814f500059
:1024900001003a00054be8000400e00005003d00a3
:1024a0000201e9008301e8001f9b97000603e80092
:1024b000969f9f008ff397008700fb001f9a97005d
:1024c0000e0078008d0007004f0778004f06be0011
:1024d0004f05be004f04be002f04b10000000600ef
:1024e000800078000000eb000100e00005003400ef
:1024f000010078006e020700e10f400001003a0081
:102500000000eb00000006000000e0002f00320099
:10251000c0017800e38f51002c0036000308a300af
:102520002a003a00514980000100e0000200320018
:10253000810f5000040031001100980050498800bc
:102540001600370082007800110190000200e000c0
:1025500002003200800f5100faff390011027800aa
:1025600084824000850f500018003900808f52008f
:1025700003003a008308420001007800070037009a
:102580000200e0000300320083014000830f51008d
:102590000e00390012009800900098009000900002
:1025a0000100e0000900320010014000828f50005d
:1025b00006003a00829220000009eb00100178002a
:1025c00011084100910090001100980000000600e1
:1025d000010020000100e00008003200010080003e
:1025e0000100e000050032008100e90001008800e0
:1025f000818040000200800000b1780000000600e9
:10260000889fbe0000047800e68440001900d000d6
:102610004500de00f27f2000820f500010003a00db
:10262000000ceb00990478006f816400200020000a
:102630001b003a00210190000200e00018003a005f
:10264000110190000200e00015003a001000200087
:102650001100e000120032002000200010003700be
:102660000000e00004003a000100780027010700a4
:102670000000e00008003c00f200280019016100a1
:1026800001fe2300810c710021c02f00010c4000cd
:102690000080eb0002003700000ceb000000eb00b4
:1026a0004f04be0000000600881f78008a9fbe000d
:1026b0008c9fbe00000478000205be000406be0028
:1026c0000401be000a00be0012030700008cbe0019
:1026d0000c01be00a70407000005550081855d00c0
:1026e0002a0498003b049800080078004f06be00ba
:1026f0004f05be004f04780000000600f087470039
:10270000889fbe008a9fbe008c9fbe008e1f7800ef
:1027100000047800814478000205be0004067800b9
:102720000b00e00002003c001b0020000a93200088
:1027300060c6b30080cf54000e00320060c4b30006
:1027400080cf54000b00320070c6b30080cf54001d
:102750000300320070c4b30080cf540081003a00ff
:10276000e40f46007f00350008109000800f5600ef
:102770007c003d000c06e80060c6b30080cf54002a
:102780001000320060c4b30080cf54000d0032004e
:10279000381090000038a30004003a0008109000a0
:1027a000808f550001003d000b1498000810900028
:1027b0000c0050000014980002003b000000eb00e9
:1027c0000014980048089000f80090000c00e00009
:1027d00026003c0002c3b300827078000000e800cd
:1027e000400c9800881090000100e00003003c00bd
:1027f000b81090000138a30005003200f8009000e6
:10280000e2c2b300827078000000e800400c98003b
:10281000081090008c00ea00810f500001003d007c
:102820000006ea008c00ea00510c98000006460001
:102830000c1498008b0f5600010034000b06780032
:102840006c0c9800f8009000480890000080400050
:102850000c0178008a00780067f9070008109000e2
:102860000c0650007c0c9800900037008c8f5500af
:1028700018003d00008040000b0178008a007800bd
:102880005df907004808900000804500400c980062
:102890008b0556005b0c9800881090000100e0004a
:1028a00003003c00b81090000138a300060032007d
:1028b000f8009000e2c2b3008270780068089000cf
:1028c0000000e800600c980008109000700c980060
:1028d00076003700008040000c0178008a00780004
:1028e00045f907004808900000004600400c980099
:1028f0008c855500881090000100e00003003c002a
:10290000b81090000138a30005003200f8009000d4
:10291000e2c2b300827078000000e800400c98002a
:1029200008109000808f5500010034008005780069
:10293000f800900048089000008040008c0045009e
:102940000b0178002cf90700480890000b004000ac
:10295000400c9800081090008b0550005b0c98000c
:102960005200370048089000f80090009a707800f4
:102970000000e800400c9800881090000100e00082
:1029800003003c00b81090000138a300050032009d
:10299000f8009000e2c2b300827078000000e80006
:1029a000400c9800081090000000e0001000340077
:1029b0008b05e900808f5500010034008005780008
:1029c000f800900048089000008040008a00e8006d
:1029d0000b01780008f90700480890000b00400040
:1029e000400c9800081090008b0550005b0c98007c
:1029f000f8009000480890000080400009587800d6
:102a00000007e8000c00e00004003500b1c2b3008c
:102a1000014878008e04780004003700d1c2b3006a
:102a2000014878008e0478000c06ea007d85570086
:102a30008006eb0009003700a20020008c0078001f
:102a4000728057007d0007007fb097008fb8970015
:102a5000016d7800000678008d06e8000c00e000ab
:102a6000f5ff3c000d00e00009003a008e047800fc
:102a700000c3b300805c7800050037008d06e900d4
:102a8000fc80570061c07e0002c3b300825c40003e
:102a90000d00e000f9ff3c00f800900048089000ad
:102aa0000080400080845400690c98003810900029
:102ab00074006000f00f50000e003a00c80890004b
:102ac0002808900000804000d808900001004000d5
:102ad000e808900001004000f80890000100400064
:102ae000a8109000810f500002003d0000805000af
:102af000300c98004f0778004f06be004f05be000f
:102b00004f04be000f01b10000000600e6004000c7
:102b10001101780005002800850261006f01610045
:102b200082087800020032001200200011003700f5
:102b3000a0019000120020000300e0000d003a0008
:102b4000900190000300e0000a003a001000e0004d
:102b500008003a0036003700640340009608780009
:102b600080017800530b7800900978000408780001
:102b700070015100110278000400e000f6ff3200fd
:102b80001300370064024000140378004f33de0066
:102b9000838141008308730080017800d3037800ab
:102ba000cf3bde001403780006034300068a73005f
:102bb0001302780004024200100378004f33de0055
:102bc0008609720090017800038841000201e90043
:102bd00091017800ef8f5100eaff360010003700b6
:102be00080017800530378004f33dd001002d100dc
:102bf000040873006402400094037800cf3bdd00ba
:102c00001303d10086897300110378004f33dd0070
:102c10009401d100030a73009108d1000201e80079
:102c200091017800ff8f5100edff3e00ef886100b9
:102c3000918872000200780000000600800278008f
:102c400001037800110009000203d8008001780018
:102c5000830a78000299b900020153009202980099
:102c6000050078000000060000c0da000000060041
:102c70000a00fa00e20f500034003e009049800044
:102c8000e10f500003003200e20f500011003a0043
:102c90000c003700032220000300e00001003a008e
:102ca0000040da002002e200020035002822ef0096
:102cb00021e2a8002342ab000d003a002342a80005
:102cc0000b003700032320000300e00001003a005e
:102cd0000040da003002e200020035003822ef0046
:102ce00031e2a8003342ab0001003a003342a800b1
:102cf000820178000b0037003102fb00e10f500029
:102d000004003a002322ab00feff3a0024118800a1
:102d1000030037003322ab00feff3a00a411880005
:102d20008301e9000300e000f3ff3a00e10f5000e7
:102d300003003a002302ab00feff32000b00370015
:102d40003302ab00feff32000800370033002000e2
:102d5000b3bf9f00c0bf9f00d1bf9f00e2bf9f00d5
:102d60006a805700c0ff07006fb997000200780023
:102d70000080fa00000006000300e00007003200b7
:102d8000a5018000a101880010427800a5018800fb
:102d90000402fb00820f5200110032008301e9009f
:102da000a5018000a101880010427800a5018800db
:102db0000404e00008003200000278001000b000b7
:102dc00000026a004260af0000f0a0000482d2005e
:102dd0000180b000e8ff3700000020000100200063
:102de000000006003400f8000203be0082027000fa
:102df0008502720002f0a60000f0a6008100e80043
:102e0000a10188001500b2000800320010597800b6
:102e10000402e9000d00320061004000fbff3900b0
:102e20003420ec0000002800f8ff3700101978006b
:102e30000482e9000500320062004000fbff390017
:102e40003420ec0000002800f8ff37003400f900bf
:102e50000601be000000060000c0da000000060007
:102e60000a00fa0011002000b1bf9f00c0bf9f0000
:102e70006a805700f8ff07004fb897000080fa00fb
:102e80000000060000c0da00000006000a00fa0098
:102e900051002000b1bf9f00c0bf9f006a80570053
:102ea000f8ff07005fb897000080fa0000000600f6
:102eb000889fbe0080047800a04980000000e000e8
:102ec00004003a000e0007000084eb000000e00060
:102ed00008003500a84980000900e0000500320024
:102ee00009004400060007000000e00001003d006a
:102ef0000084eb00080078004f04be0000000600cc
:102f0000800078000100e00003003a00000020008b
:102f1000a0498800000005000080eb0002002000ae
:102f2000828f500002003e00a14988000000eb00a3
:102f3000000006006011b80042003700889fbe0004
:102f40008a9fbe008c1f78006d000700740033005c
:102f500003866c006450e1002e0032006420e10022
:102f6000330032006150e1002f0032006120e100a7
:102f70003100320085855500eb07b00009002000c4
:102f800008042000050037000804440089844c0030
:102f90000a0031000603430087834b000001530001
:102fa00081815b00f8ff33000203be000800a0002f
:102fb0000804440089844c00f6ff3900c639dd005e
:102fc0008301730001003200130020008904d10046
:102fd0000884d3000998a300050032000800a70068
:102fe0000300a0008904d1000884d3008b05e80009
:102ff0008904d1000884d3000001eb000281d200d3
:103000005700070001f0a1000cf0a70001f0a0009c
:103010004c0037006420e1004e0032000801be0081
:103020000200be00f7ff37006120e10049003200d6
:103030006000b800f3ff37000000200001f827000f
:10304000f0ff3700889fbe008a9fbe00008270009c
:103050000402710004827100260032000004be00e8
:103060000200be006011b8006b092000950220002c
:103070000182cf000a0039000541b1000082cf0073
:10308000070039000541b1000982cf000400390072
:103090000541b1000882cf00010039000541b100af
:1030a00005425200120032000a003b00828171008a
:1030b000610164008100d1000080d3008984d300c5
:1030c0000884d3008b05e8000442e800f7ff3a00cb
:1030d000070037000804440089844c0000004800c1
:1030e000818048008b05e9000442e900f9ff3a00bd
:1030f0001b0007004f05be004f04be000000060085
:103100000004be003c0007000003be000405be0032
:103110000200be0038000700844f75000000060062
:103120000200be006450e100050036006420e100aa
:10313000020036000968a30001003a000800be0042
:103140000160a0004f0678004f05be004f04be008e
:1031500000000600f0ff2f00f1ff2700f9ff370005
:1031600081002000618055000b003d000b00200015
:1031700061fe2f000100e1001d003400828171001a
:10318000610164008904d1000884d3000000e800d4
:10319000faff3a0071002000610064000300700033
:1031a000020060000900320061044400e0844c0029
:1031b0000988a500050032008b05e8006808e100d9
:1031c00002003a008904d1000884d300f20f2000e5
:1031d0000258e10005003d00c75ddd00f907b200bf
:1031e0008980750008007800000006000bf82700b1
:1031f0008b00780000000500c70ade00f107b2006e
:10320000f50fb20008003200e1cf420002003200a8
:103210000170a00024000500810f70000100320041
:103220000408050044000500810f700002003a0008
:10323000140005008502e9000000400081c048003c
:10324000fcff3b000170a000240005008103780012
:10325000e9ff07000001be006000b8000478a30089
:1032600013003a006220e10015003e000d00390015
:103270008301d1000281d3008180d3008301d1007a
:103280000281d3008180d3008301d1000281d30069
:103290008180d3000538b000c42add00f300b200fd
:1032a0008381720007f0a70003f0a0000000060071
:1032b000f3ff2700f2ff2f006110b900fbff37007a
:1032c00003ff2700f7ff3700020007000400be00dd
:1032d000000006006022b800060220000000d000b6
:1032e0008180d2000482d2008582d2000000a0003a
:1032f0000202520083825a0003003100020242009f
:1033000083824a000000a1000603e900f3ff3a00af
:1033100000000600839f68000100e00002003d00fd
:1033200060001000e08018000300e00002003d0093
:1033300060011100e0811900e6ff07004f00e00086
:1033400002003b0060001000e08018000000060052
:10335000889fbe008a9fbe0030044200b0844a00ad
:1033600030054b0090854b006000b1000898be000e
:103370000a90be00c1000700020031006800400052
:103380001008e8004f05be004f04be000000060014
:10339000889fbe008a9fbe003004be002005be008c
:1033a0000418540005985c0006185d0007985d003d
:1033b00011002000b1000700010039008000eb007f
:1033c000108810004f05be004f04be00000006002c
:1033d0001200fa00889fbe008a9fbe008c9fbe002c
:1033e000e0b79f00f1b79f0082bf9f0093bf9f008f
:1033f0000605be000404be000000eb00d0b79f002d
:10340000c0b79f00b0b79f00a0b79f0090b79f00c4
:10341000000678005fb19700cfb0970082014100ad
:103420003fb097000200e00004003d009800070054
:103430007e805700c6ff0700030037009400070096
:103440007e805700d2ff0700dfb697000d00e00036
:103450000c0035006fb29700ffb297000fbb9700ca
:103460009fbb970010002000010020006011b800f1
:103470000002720081827200020373008383730072
:10348000580007000c06e80001042000810f5600d8
:10349000e0ff3a000d00e00004003d000802be001d
:1034a0000a03be007e805700a9ff07005fa89700af
:1034b0000000e00005003a001fb29700afb297008d
:1034c0003fb39700cfb39700460007006fb0970057
:1034d000ffb097000fb997009fb997004f06be0045
:1034e0004f05be004f04be000080fa000000060039
:1034f000881f780018002000881f7800b4ff07009c
:103500008f87e9004f04780000000600801feb0061
:10351000afff07008f87e90000000600889fbe000c
:103520008a9fbe003d00070007003d0040000700e5
:10353000180020004500070008003d002b00070090
:103540000004eb00050037000004eb003f0007001b
:1035500002003d002500070018002000e4ff0700de
:103560000800e000010032003d0007004f05be00ea
:103570004f04be0000000600889fbe008a9fbe0068
:103580008c1f78002500070008003d002800070078
:103590001c0020000820e10009a8e1000ab0e100b9
:1035a0000bb8e10007003d00050037000006eb0006
:1035b0002600070003003d006044b8006055b800d5
:1035c0000c000700d1ff07000c00e00001003200f2
:1035d000230007004f0678004f05be004f04be00d1
:1035e0000000060008000700000006006044b80064
:1035f0006055b8000402540085825c0006035d003b
:1036000087835d0000000600a4b79f00b5b79f0048
:10361000c6b79f00d7b79f0000000600e00f50001c
:10362000e08f5800e00f5900e08f590000000600bd
:103630006044b8006055b8000000540081805c0010
:1036400002015d0083815d0000000600e00f520072
:10365000e08f5a00e00f5b00e08f5b000000060087
:103660006022b8006033b8000000520081805a0028
:1036700002015b0083815b00000006000440e10062
:1036800005c8e10006d0e10007d8e100000006000f
:103690004f09de0082817100b3b79f004f01de0049
:1036a0008180400082807000a1b79f008fb097009a
:1036b0004f09de00000040000200700090b79f003c
:1036c0007fa897004f01de0081804000828070005b
:1036d00081b79f000d0007004f3ade000000400058
:1036e00004007000f0af9f000800070004024200d1
:1036f00085824a0006034b0087834b00c2ff070008
:103700000802be000a03be00000006002fb29700a8
:10371000bfb297004fb39700dfb3970000000600d9
:103720008f1fd100990007008f87e9000000e0009b
:10373000000006002800fa00889fbe008a9fbe0095
:103740008c9fbe0003866b00b90007006400e10097
:10375000440032006408e1004a0032006100e100e8
:10376000460032006108e10049003200ec064700e3
:103770006000b8003d02be003d03be00f486570065
:103780006011b8003d04be003d05be007d03200071
:103790000b0037000000a0008d06e9001300320086
:1037a0000402420085824a0006034b0087834b00d7
:1037b00000004000818048000201490083814900e7
:1037c0000802520089825a000a035b008b835b0067
:1037d000f0ff3b000802420089824a000a034b00c6
:1037e0008b834b008d06e900edff3a008482720066
:1037f00086827200f707b2008782720001003200f1
:10380000150020001e0490003e0b9000060354009b
:10381000e63fb0000368a300070032000000a700e5
:103820000500a0008301d1000281d3008180d30074
:103830000080d3000603e8008301d1000281d30099
:103840008180d3000080d3000002eb000482d2000c
:103850009000070003f0a1000cf0a70003f0a00007
:1038600087003700640247006408e10081003200ed
:103870003400be003401be00f6ff37006108e100ed
:103880007c0032006011b8006000b800f1ff370022
:1038900003ff270002002000fbff37001400fa009e
:1038a000889fbe008a9fbe008c9fbe000004be00a1
:1038b0000205be00680047000a90be000890be00e6
:1038c000a00007000070a7000bf0a100304320000b
:1038d0009e02900080825200b0fe2f000028e1007e
:1038e00011003d00b0fc2f000028e100150034005d
:1038f0001e0990008e0890007e0090000501b00027
:103900000201d1008180d3000080d3008502e8004d
:10391000fbff3a000b00e00059003b006000100084
:10392000e080180056003700f0ff2f00f1ff27005d
:103930000b00e00052003b000100280000002000c6
:103940004f0037006000b8004d0037004f89de009f
:1039500082017800a200370007f0a200760137004c
:10396000809feb00090007008f87e9000000e0005e
:1039700000000600020ab900001bb9000200b800ee
:10398000810042008100430000000600889fbe00c5
:103990008a9fbe008c9fbe000404be000605be00c8
:1039a000809fbe00829fbe009d0007000406780035
:1039b0000800be000a01be009900070084067800d6
:1039c0004f03be004f02be008d4f76007fb09700c0
:1039d00013003300f0ff2f008b8f6b0006003b00bd
:1039e0000d0666000c00a7000a00370007f0a600cd
:1039f000100020000a003700880f5200898f5a00fb
:103a00008a0f5b008b8f5b000300390010002000e1
:103a100001003e000000200007f0a7000000ea00bf
:103a20004f06be004f05be004f04be00000006005a
:103a3000680447000294be000094be00fc044700e6
:103a40008694be008494be00090078003d00070003
:103a5000080078003b00070099007800814f700053
:103a60000b003b000800be007f0007004f00b100c4
:103a700003003700f3ff2700f2ff2f006110b900a9
:103a80004f06be004f05be004f04be000080fa0086
:103a90000000060018002000570020000804530012
:103aa0000d003d000600200097fc2f000740e100bc
:103ab0001e00340084827200610260008301d10024
:103ac0000281d3008180d3000080d3000804e80085
:103ad000f8ff3a004700200061046000050474000c
:103ae000040464000d00320061004000e0804800e2
:103af00060014900e081490003b8a50007003200d9
:103b00000603e8006538e10004003a008301d100b3
:103b10000281d3008180d3000080d300f87f200091
:103b20000830e10003003500080378006000b800a9
:103b30006011b8004433dd00f300b200830173006c
:103b400000000600800078005002be005003be0056
:103b50004439de00f700b200f37f2000030161006a
:103b6000090032000218e10016003a0085017200d7
:103b700083017300838173000008200015003a0060
:103b8000400020001300370085017200830173009c
:103b90008381730005003a0004a8be0006a8be0099
:103ba000100020000b0037000201e900040242006f
:103bb00085824a0006034b0087834b000748a30019
:103bc000f9ff32000740a00004a8be0006a8be000e
:103bd000200020008000980092009800000006005d
:103be000881f7800030478000300e00007003d0010
:103bf00060001000e080180060011900e0811900e9
:103c000002003b0001f02d000300370024000700f4
:103c100008f0a70003f0a0004f04780000000600a1
:103c200005ff270005826100070032000428e1003b
:103c300001003200240005000600070001003a00e0
:103c4000440005000408050002000700f9ff3a00df
:103c5000140005006f82610081027000850271000e
:103c60008502720000000600e48240001078a30084
:103c700007003200640240001178a3003400be0047
:103c80001401be00040032000330a700000006004b
:103c90003500be001501be000330a0000000060084
:103ca000889fbe00008270000402710004827100cf
:103cb0002400320036432000c50020008383cf005b
:103cc0000a0039000541b1008283cf0007003900a6
:103cd0000541b1008183cf00040039000541b100e6
:103ce0008083cf00010039000541b10085c3530036
:103cf0006022b800120032000a003b008482720089
:103d0000610260008301d1000281d3008180d30071
:103d10000080d3000603e8008743e800f7ff3a007d
:103d20000700370000004000818048000201490080
:103d3000838149000603e9008743e900f9ff3a005f
:103d400054ff07004f04be00000006004211880027
:103d5000001188001111880000000600000000001a
:103d60002800fa00889fbe008a9fbe008c9fbe007c
:103d700003866b002eff07000028a30064003a00b2
:103d80000128a30067003a000008a30062003a007f
:103d90000108a30065003a001e009000be089000d4
:103da00081064000ed3fb100f4805700ee01900025
:103db000111ab8008e099000311bb8009e099000be
:103dc000311cb800511db800f485570046000700ab
:103dd000fe0190003a0007008b85e8003e000700d6
:103de0008e09900040000700ee01900034000700ab
:103df0008b85e800380007008e099000400007001e
:103e00009e0990001b18b800890440000a854800ec
:103e1000fe019000340007008b85e80038000700a1
:103e2000ee019000300007008e0990001b18b800ca
:103e3000890440000a8548000a98a30008003a0057
:103e40000402420085824a0006034b0087834b0030
:103e500008044c0089844c000a054d008d06e900d9
:103e600084827200850273004c3add008502720084
:103e70000100320015002000443ade001400b200b8
:103e80004538de00cb45dd000b007000c540de008c
:103e9000cb4ddd008b8070004549de00cb55dd0049
:103ea0000b017100c551de000d037800f9fe07001b
:103eb00003f0a1000cf0a70003f0a000f0fe370013
:103ec0001b18b8008502400006834800e0834b00c1
:103ed00060044c00070037001b18b80006034000c0
:103ee00087834800faff37001b18b800870340009b
:103ef00008844800e0844c0060054d000000060086
:103f00001b18b8000804400089844800faff3700f5
:103f10000108a300d7fe3a005800be005801be00b9
:103f2000e3ff37000008a300d2fe3a00090478003e
:103f3000f9ff3700000000002800fa00889fbe004b
:103f40008a9fbe008c9fbe000706780087866900a6
:103f50000c003b00030478008704780008f0a100ff
:103f600009f0a100840f5000858f5800860f59007a
:103f7000890f5c00030033000cf0a20001003a003e
:103f80000cf0a100aafe07006400e1005f0032000f
:103f9000780147006408e100610032006c014700cd
:103fa000748557003200be001201be003a04be0004
:103fb0001a05be001e039000be0a90008503530040
:103fc00006003d000004fd008104fd000205fd0027
:103fd0008305fd008703ea00050378000df8a300c0
:103fe0000400320060041400e0841c0060051d0021
:103ff000e0851d006022b8007d0320000d38e1003f
:104000008006eb000b0039004433dd00f300b20002
:104010008301730039003700848272000d0278003a
:10402000e10664008b85d1000a85d3008984d30022
:104030000884d3008703e900f7ff3b000800400035
:10404000898048000a0149008b81490004003b0037
:1040500060001000e080180060011900e081190084
:104060000358a300090032008d827200848272001e
:10407000610260008301d1000281d3008180d300fe
:104080000080d3000603e8001b0037000348a300ac
:1040900017003a000600e000170034000603e900ac
:1040a0000d00a30000004800818048000201490083
:1040b000838149000348a3000f003a000600e00096
:1040c000090034000603e900000040008180480038
:1040d000020149008381490001003a000003eb001e
:1040e0000348a300f5ff32006022b8000200370049
:1040f000848272006182660066fe070003f0a10000
:104100000cf0a70003f0a0005dfe3700640147003b
:104110006408e10002003a000df8a30055fe3a00e1
:104120003200be001201be0055fe37000000000044
:020000040000fa
:1041300025300000327500003a25000030320000c2
:10414000752e0000253000003375000020000000af
:1041500043790000636c0000653a000020250000f0
:10416000752000000d540000696d0000653a0000e4
:10417000202500002e340000662000000000000012
:020000040000fa
:104180000000fa006200200001402000000028002a
:10419000eefe070000802e0031002000b8f007007e
:1041a0000080fa00000006000200fa00004f7800cc
:1041b000010037000000000023c2bf006240600021
:1041c0000004e000fbff3a001e80fb002011880085
:1041d000010037000000000023c2bf006140600002
:1041e0000004e000fbff32000080fa00000006003f
:1041f0000600fa0010079800414798000040eb00c5
:10420000004f7800070037001e80fb008000780018
:104210001e0090000080400010407800e2ff070080
:104220001e4fe8004e4090009e4f1000f6ff3900f0
:104230000080fa00000006000200fa00004f78003b
:10424000c0c7b300d8ff07001e407800d6ff0700a4
:104250000080fa00000006000000fa00c0c7b300aa
:10426000d1ff07000040eb00cfff07000080fa00fd
:10427000000006000200fa00000f7800c0c7b3007b
:10428000c9ff070010c0b300c7ff07001e00780079
:10429000c5ff07000080fa00000006000200fa00d7
:1042a000000f7800c0c7b300bfff070020c0b300f5
:1042b000bdff07001e007800bbff07000080fa006a
:1042c000000006000800fa00000f780011079800af
:1042d0002207980033079800c0c7b300b2ff070059
:1042e00030c0b300b0ff07001e007800aeff07002b
:1042f0001e009000acff07002e009000aaff0700f0
:104300003e009000a8ff07000080fa0000000600b1
:104310000000fa00c0c7b300a3ff070040c0b3000d
:10432000a1ff07000080fa00000006000800fa0064
:10433000000f7800110798002207980033079800b3
:10434000c0c7b30098ff070050c0b30096ff070036
:104350001e00780094ff07001e00900092ff0700e7
:104360002e00900090ff07003e0090008eff070097
:104370000080fa00000006000000fa00c0c7b30089
:1043800089ff070060c0b30087ff07000080fa00c4
:10439000000006000200fa00000f78001e00e00096
:1043a00002003c0010002000000f78006000200098
:1043b0009e0f10000200340060002000000f780003
:1043c000c0c7b30078ff070070c0b30076ff0700d6
:1043d0001e00780074ff07000080fa00000006004d
:1043e0000000fa00c0c7b3006fff070080c0b30031
:1043f0006dff07000080fa00000006000200fa00ce
:10440000000f7800c0c7b30067ff0700a0c0b3006b
:1044100065ff07001e00780063ff07000080fa00b8
:10442000000006000800fa00000f7800110798004d
:104430002207980033079800c0c7b3005aff07004f
:10444000b0c0b30058ff07001e00780056ff0700f9
:104450001e00900054ff07002e00900052ff07003e
:104460003e00900050ff07000080fa0000000600a8
:104470000a00fa00000f7800110798002207980040
:104480003307980044079800c0c7b30046ff0700f1
:10449000c0c0b30044ff07001e00780042ff0700c1
:1044a0001e00900040ff07002e0090003eff070016
:1044b0003e0090003cff07004e0090003aff0700ce
:1044c0000080fa00000006000a00fa0010079800b9
:1044d000210798003207980043079800c0c7b3002f
:1044e00031ff0700d0c0b3002fff07001e0090006f
:1044f0002dff07002e0090002bff07003e009000cc
:1045000029ff07000000eb00000f780007003700cc
:104510001e007800800078004e009000008040006f
:104520001040780020ff07001e0fe800f001200077
:104530009e0f1000f6ff34000080fa000000060015
:104540000a00fa00000f780011079800220798006f
:104550003307980044079800c0c7b30012ff070054
:10456000f0c0b30010ff07001e0078000eff070028
:104570001e0090000cff07002e0090000aff0700ad
:104580003e00900008ff07004e00900006ff070065
:104590000080fa00000006000600fa00000f780014
:1045a0001107980022079800c0c7b300fefe07005d
:1045b00000c1b300fcfe0700000820009e0f1000a1
:1045c0000300340000c8b300f7fe070007003700ff
:1045d0001e00e00003003d000040eb00f2fe07007b
:1045e000020037001e007800effe07009e009000da
:1045f00000042000808f50000300340000c4b3008a
:10460000e9fe0700080037001e0090000000e000ef
:1046100003003d000040eb00e3fe0700020037000e
:104620001e009000e0fe07002e009000e10f5000f9
:10463000060032002e0090000000e000030032006f
:1046400010c0b300d8fe0700020037002e00900013
:10465000d5fe07000080fa00000006000a00fa00fc
:10466000000f780011079800220798003307980080
:10467000044f9800c0c7b300cbfe070020c1b300b1
:10468000c9fe07001e007800c7fe07001e0090004c
:10469000c5fe07002e009000c3fe07003e009000fc
:1046a000c1fe07000e489000bffe07000080fa0020
:1046b000000006000000fa00c0c7b300bafe070001
:1046c00040c1b300b8fe07000080fa0000000600f9
:1046d0000000fa00c0c7b300b3fe070050c1b3002a
:1046e000b1fe07000080fa00000006000e00fa008c
:1046f0001007980021079800320798004307980098
:104700005407980065079800c0c7b300a6fe0700cd
:1047100060c1b300a4fe07001e009000a2fe0700c7
:104720002e009000a0fe07003e0090009efe0700b5
:104730004e0090009cfe07005e0090009afe07006d
:10474000ce0090005e0090000088b900820020003a
:10475000110009000200d800000f78000000eb00f3
:1047600010079800090037001e00900080007800b4
:104770006e00900000804000104078008afe070024
:104780001e0090000000e800100798001e00900036
:104790009e0f5000f4ff35000080fa000000060074
:1047a0000400fa00000f780011079800c0c7b3009a
:1047b0007dfe070080c1b3007bfe07001e0078006d
:1047c00079fe0700c0c7b30077fe070090c1b300b1
:1047d00075fe07001e00900073fe07000080fa00bf
:1047e000000006000400fa00100798001e00900068
:1047f000e80f5000030034008000200010079800ec
:104800000c0037001e0090000000e00003003c0098
:104810001000200010079800060037001e009000ce
:104820004300dd00680f50009e007800100020005b
:10483000dbff07000080fa00000006000200fa001b
:10484000000f780042c7bf000014a0000081fb00e9
:104850006004200071052000237420008049780046
:10486000814978008249780005e1a9000421a80067
:104870000441a90021088000f0fc2f0000806000a6
:10488000200888000021ef001e0078001008880032
:1048900021058000f0ff28000080600000c0a0001b
:1048a000200588008460a9009460a80005e1a800a4
:1048b0000080fa00000006000200fa00000f7800f5
:1048c00011e1a9001021a90010c1a90081088000f0
:1048d0000003200001007000800888000621ef001e
:1048e0001e0078006008880031058000f0ff280075
:1048f0000080600000c0a0003005880094e0a8009f
:1049000011e1a8000080fa00000006000000fa0093
:1049100013e1a9001221a90012c1a9000a21ef0088
:1049200091088000f0fc2f00008060009008880053
:1049300013e1a8000080fa00000006000800fa0059
:10494000300798003e0190001000200001a62e00c4
:10495000810f5100010031000000eb00000f7800d2
:104960003e0190001000200001a62e00810f510092
:10497000010031000000eb0001a62e000180b9000b
:104980000000780000005100c300de00500c22003f
:104990000008b8004408de00100798003e019000af
:1049a000c310de00500c22000008b800c408de006e
:1049b000803e20000088b90000007800000051000f
:1049c0002007980080c1b3001bfe07000040eb00e9
:1049d000f5fd070090c1b30017fe07000040eb0093
:1049e000f1fd0700ae009000811f78009e0090004e
:1049f000811f78009e1f780080092a00801f7800a0
:104a000081ef0700e88757004083200035ef07005b
:104a10000080fa00000006000600fa00510880003d
:104a2000010f78001e0078008000eb0041f90700bc
:104a300082712b0013c5230040f90700100798006e
:104a40002107980080c1b300fbfd07000040eb0088
:104a5000d5fd070090c1b300f7fd070000c1b3000a
:104a6000d1fd07001e009000ae009000809fbe00a8
:104a70009e1f7800800a2a00801f780062ef0700de
:104a8000e88757004083200016ef07000080fa00f7
:104a9000000006000000fa00c082a900000000002b
:104aa000c0a2a90000000000c122a900000000006f
:104ab000c142a90000000000c002a90000000000df
:104ac00011168000e09c2f00008060001016880006
:104ad000abfd07000040eb00d7fd070080c1b3002d
:104ae000d5fd07000040eb00affd070090c1b3000b
:104af000d1fd07000040eb00abfd070020032000c4
:104b00006dff0700f0ff27004cff07002a83a80075
:104b1000d902a8009680a8007105800080ff2f00b0
:104b2000008060000000a000700588008220a800be
:104b300076ff0700010037000000000040408000c1
:104b40000000e80040408800101680004a00de00a7
:104b5000614060000004a200614060000080fb0032
:104b6000610060004a00dd001116800001a0a10074
:104b70000100700010168800000000004140800015
:104b8000701a2600808f5000ebff36003040800006
:104b90006aff07000828ef009fff0700e7ff3700c4
:020000040000fa
:104ba000000800000c000000000000000c080000dd
:104bb0008800000002000000010000000032080030
:104bc0003308320008320800320832000822080098
:104bd00000000000000000000000000000000000d5
:104be00000000000000000000000000000020800bb
:104bf00001015a00085b08005a085a00085a0800c8
:104c00005a084a00080000000000000000000000f0
:104c10000000000000000000000000000000000094
:104c200000000200080202008208830008820800d7
:104c3000820882000882080072080000000000005c
:104c40000000000000000000000000000000000064
:104c500000000000000000000c083400085c0800a0
:104c60000000000000000000000000000000000044
:104c70000e0900001a00000002000000686a6c00c3
:104c8000747a4c00000001000002000004000800db
:104c900000100000000020002b2d23003000000039
:104ca0002c090000020000000200000004000000c7
:104cb0002809000004000000000000002e09000088
:104cc0000200000000000000ec08000022000000cc
:104cd00002000000303132003334350036373800fe
:104ce0003941420043444500460030003132330030
:104cf0003435360037383900616263006465660018
:104d000000000000940800005800000002000000ad
:104d10006e616e00004e41004e0069006e6600003c
:104d2000494e460000000000000000000024400042
:104d300000000000000000005940000000000000da
:104d40000088c3004000000000008400d7974100a5
:104d50000080e0003779c300414317006e05b500bd
:104d6000b5b8930046f5f9003fe903004f384d0010
:104d7000321d3000f9487700825a3c00bf737f0033
:104d8000dd4f150075000000300900000200000032
:104d900002000000300000003209000002000000a4
:104da00002000000010000003409000002000000c1
:084db0000000000000000000fb
:020000040000fa
:0200000401f009
:04000800ffffff00f7
:020000040000fa
:0200000401f009
:04000c00a30000004d
:020000040000fa
:0200000401f009
:04001000c500000027
:020000040000fa
:0200000401f009
:040014005f00000089
:00000001FF
